:030000000211B931
:0C11B900787FE4F6D8FD75816202120018
:1016D100043200000000043600000000043A00005B
:1016E1000000043E00000000022E00000230000055
:1016F100044600000000044A3CA3D70A044241808A
:021701000000E6
:1015E6007E13EED394007480948040127F82EFD3F2
:1015F60094007480948040031F80F31E80E4B2B789
:101606007E13EED394007480948040127F82EFD3D1
:1016160094007480948040031F80F31E80E4D2B748
:0116260022A1
:100ACF001219E91214C17530007531017D087F00CC
:100ADF007E1C1218227D097F007E3C1218227D0A8F
:100AEF007F007E5C1218227D0B7F007E7C12182205
:100AFF007F0C121A217F0C121510E4FF1210738F46
:100B0F00358E348D338C327F021210738F398E38BD
:100B1F008D378C367F041210738F3D8E3C8D3B8C3E
:100B2F003A7F061210738F418E408D3F8C3E7F0CA3
:100B3F00121510E4FF1210738F358E348D338C32F3
:100B4F007F021210738F398E388D378C367F0412D7
:100B5F0010738F3D8E3C8D3B8C3A7F061210738F36
:100B6F00418E408D3F8C3E20B376E5316402453097
:100B7F006006121B2512124575300075310285393A
:100B8F000D85380C85370B85360A85451185441040
:100B9F0085430F85420E7D48E4FF120C2985390DE0
:100BAF0085380C85370B85360A85451185441085A8
:100BBF00430F85420E7D587F03120D7F8F498E485C
:100BCF008D478C46AB4DAA4CA94BA84A1202A140A7
:100BDF0006121AB0020B3D121A3D1215E6020B3D1A
:100BEF00E53145306006121B251212D0E4F530F5C1
:100BFF003185390D85380C85370B85360A7D307F69
:100C0F000312096285390D85380C85370B85360A35
:0A0C1F007D387F06120EA0020B3D87
:1005420000E010080810E000000F102020100F003B
:10055200001010F8000000000020203F20200000C2
:10056200007008080888700000302824222130001A
:1005720000300888884830000018202020110E0022
:100582000000C02010F8000000070424243F2400CB
:1005920000F80888880808000019212020110E00A0
:1005A20000E0108888180000000F112020110E00B2
:1005B20000380808C83808000000003F00000000AA
:1005C2000070880808887000001C222121221C006B
:1005D20000E010080810E0000000312222110F0094
:1005E200000000C0C0000000000000303000000029
:1005F20000000000000000000001010101010101F2
:10060200000000F0000000000101011F01010100D3
:100612000000000000000000003030000000000078
:10062200808000808000000080FF912020110E0059
:10063200008080E0909020000020203F20200000D9
:10064200F008F0806018000000310C031E211E002B
:100652000000000000000000808080808080808098
:100662000000000000000000000000000000000088
:100672000000804020100800000102040810200041
:10068200000202C2020202FE828282828202000012
:100692004040407F4040407F40404040404040001A
:1006A200080888C8380C0B0808E808080808080079
:1006B200020100FF40414141417F4141414140002F
:1006C20080828282FE8282828282FE828282800096
:1006D200008040300F0000000000FF00000000001A
:1006E2001010D0FF901000FE020202FE0000000077
:1006F200040300FF0083601F0000003F40407800B9
:100702000000FE0202F2929A969292F20202020015
:1007120080601F40201744847C040417204000009E
:100722001060028C00F0101010FF101010F000008A
:1007320004047E0100FF4242427F424242FF000027
:1007420040402020908894E38488902020404000FC
:10075200000000FC44444444464544FC00000000C0
:1007620000202020A06000FF6080402018000000D0
:10077200201008060140807F0001020408101000CA
:100782000014A4442434AD6624940444A414000048
:1007920008090808090909FD09090B0808090800E0
:1007A2001010D0FF905020504C434C50204040003D
:1007B200040300FF00414458414E60584740400046
:1007C2001060028C00FE02F202FE00F800FF000040
:1007D20004047E018047300F10270047807F00000D
:1007E2000000F888888888FF88888888F8000000D8
:1007F20000001F080808087F888888889F80F0000A
:10080200100C4424148445264484142444140C00FB
:10081200040402FE45444444444445FE02040400E8
:10082200100C4424148445264484142444140C00DB
:10083200040402FE45444444444445FE02040400C8
:10084200008060F80704E4A4A4BFA4A4E4040000A8
:10085200010000FF40407F4A4A4A4A4A7F40400026
:100862000000000000000000000000000000000086
:10087200000036360000000000000000000000000A
:100882004458C0FF504C004454547F5454544400C4
:10089200080601FF01060000FF151555957F0000AF
:1008A2000000FC242424FC252624FC242424040007
:1008B20040308F80844C55252525554C8080800002
:1008C2000000007F494949494949497F0000000029
:1008D2008141211D214181FF898989898981810085
:1008E20000028282422212FA062222424282000040
:1008F200010100FC44444445444444FC000001001E
:10090200404020205048444344485020204040006A
:10091200000000FE42424242424242FE000000000B
:100922001010D0FF90201018A744A4140C0000004F
:10093200040300FF000502FD44444445FD02020099
:1009420000020202028242F20E428202020200000F
:1009520010080402010000FF00000001020C000068
:0C1B0E00000000000000000000000022A9
:071B2F00E4F52DC2A2D2A1D2
:011B3600228C
:10195300AB29AA2AA92B852C827583001203EAFFDF
:0E196300121B2FD2A2C2A18F90D2A0C2A0222E
:101A9E00D2B0D2B1121B2FC2A1C2A28F90D2A0C2BD
:021AAE00A02274
:0E1B0000121B2FC2A1C2A28F90D2A0C2A0229F
:071AC2007F0112184BAF2752
:091AC9005307074307B8021B0094
:071AD200E52824C0252CFFCC
:091AD90053073F430740021B00C4
:061B37004307C0021B0081
:061B3D0043073E021B00FD
:10184B00EF14600B14601124027017C2B08002D227
:10185B00B0121B0EC2B18007C2B0121B0ED2B11256
:03186B001B0E222F
:1017CB0012184BE4FEEEC3940874809480501CAF47
:1017DB0006121AC9E4FDEDC394407480948050083E
:0B17EB00E4FF1219630D80EE0E80DA9F
:0117F60022D0
:0A1124008F278D288B298A2A892B3A
:10112E00C3E528944074809480503A121AC2AF28B6
:10113E00121AD9E4F52CAF2CC3EF94087480948066
:10114E005068E5282FFFE433FEC3EF9440EE648031
:10115E009480500280087F02121AC4121AD21219F9
:10116E0053052C80D17F0212184B74C02528F52808
:10117E00AF27121AC9AF28121AD9E4F52CAF2CC317
:10118E00EF9408748094805021E5282FFFE433FEFD
:10119E00C3EF9440EE6480948050028006121AC20F
:0A11AE00121AD2121953052C80D337
:0111B8002214
:041737008F228D234D
:10173B00EB75F010A42442F9740535F0FA7BFF8B9E
:10174B0024F5258926AF22121124E52204FFAB24B0
:0E175B00E5262408F9E43525FAAD2302112411
:0413B4007D207F0613
:0413B8008F098D0A02
:1013BC00EB75F020A42482F9740635F0FA7BFF8BD0
:1013CC000BF50C890DAF09121124E50A2408FDABAD
:1013DC000BE50D2408F9E4350CFAAF09121124E5DC
:1013EC000904FFAB0BE50D2410F9E4350CFAAD0A3A
:1013FC00121124E50904FFE50A2408FDAB0BE50DE9
:0A140C002418F9E4350CFA0211244B
:1019E9007FD0AE071FEE70FA7F01121B3D7F0112F7
:0C19F90017CB7F021217CBE4FF021B3754
:0A1B25007F011217CB7F020217CBDD
:1014C100E4F508FB7D287F021213B87B017D387F8C
:1014D100021213B87B027D487F021213B87B037D91
:1014E100587F021213B8E4F508C3E508940A748022
:1014F1009480501AE50875F008A42420FD7B137F21
:0E15010004121737121915121915050880DB90
:01150F0022B9
:1012D0007B047D08E4FF1213B87B057D18E4FF1240
:1012E00013B87B067D28E4FF1213B87B077D38E432
:1012F000FF1213B87B087D48E4FF1213B87B097D09
:1013000058E4FF1213B87B0A7D68E4FF1213B87B20
:101310000BE4FD7F031213B87B0C7D107F031213C7
:10132000B87B0F7D207F031213B87B06E4FD7F0698
:101330001213B87B077D107F061213B87B081213B7
:0A134000B47B0F7D307F060213B866
:101245007B0BE4FDFF1213B87B0C7D10E4FF12133A
:10125500B87B107D20E4FF1213B87B117D30E4FFCD
:101265001213B87B0F7D40E4FF1213B87B06E4FD33
:101275007F031213B87B077D107F031213B87B0819
:101285007D207F031213B87B107D307F031213B8C6
:101295007B117D407F031213B87B0F7D507F0312B6
:1012A50013B87B12E4FD7F061213B87B137D107F04
:1012B500061213B87B141213B47B157D307F06120A
:0B12C50013B87B0F7D407F060213B8BA
:101AB0007B147D507F061213B87B157D607F060274
:021AC00013B859
:101A3D007B167D507F061213B87B147D607F0612D6
:0B1A4D0013B87B157D707F060213B8F4
:100FB9008E1E8F1F8C208D21EA6003021072EBB404
:100FC9000E004003021072900FD7F8282873021000
:100FD9004902100102100902101102101902102110
:100FE9000210290210310210390210410210510277
:100FF9001059021061021069AF1FAD217B01806693
:10100900AF1FAD217B02805EAF1FAD217B038056F0
:10101900AF1FAD217B04804EAF1FAD217B058046FC
:10102900AF1FAD217B06803EAF1FAD217B07803608
:10103900AF1FAD217B08802EAF1FAD217B09802614
:10104900AF1FAD21E4FB801EAF1FAD217B0D8016C4
:10105900AF1FAD217B0E800EAF1FAD217B0F800628
:0A106900AF1FAD217B1012173722D4
:0F1AE200D2A4121B43D2A3121B43C2A4021B4364
:0F1AF100C2A4121B43D2A3121B43D2A4021B4355
:101A0500D2A3121B4330A40FC3E56294FA748094E9
:0C1A1500805004056280EEC2A3021B4357
:101704008F5BE4F55AC3E55A9408748094805019A9
:10171400E55B25E0F55BC2A3121B4392A4121B43B5
:10172400D2A3121B43055A80DCC2A3121B43D2A4CA
:03173400021B4352
:10169C00C2A3121B43D2A4121B43E4F55CC3E55C4A
:1016AC00940874809480501AD2A3121B43E55D25D4
:1016BC00E0FFA2A4E4334FF55DC2A3121B43055C0B
:0416CC0080DBAF5DB3
:0116D00022F7
:1018B4008F5E8D5F121AE27FA0121704121A05AF11
:1018C4005E121704121A05AF5F121704121A0502EA
:0218D4001AF107
:0217F7008F6001
:1017F900121AE27FA0121704121A05AF6012170419
:10180900121A05121AE27FA1121704121A051216EA
:081819009C8F61121AF1AF610E
:0118210022A4
:10197100D3EF9400EE940040147D707C00ED1D7057
:0D198100011CED4C70F7EF1F70E61E80E3B7
:01198E002236
:0B1B1A00EF1FAC0670011E4C70F6229D
:1018F600E4FFEFC394FF748094805012E4FEEEC3BD
:0E19060094C87480948050030E80F30F80E428
:0119140022B0
:101915007F13EFD394007480948040127E82EED3BF
:0E19250094007480948040031E80F31F80E4C1
:011933002291
:101A5800E4FEEEC39F5012E4FDEDC3946E748094CF
:091A68008050030D80F30E80E9AB
:011A71002252
:011B4300227F
:101666008F218E208D1F8C1EE4FFFEFDFCAB21AA70
:1016760020A91FA81E1202A15013AF21AE20AD1F34
:10168600AC1E12031A8F218E208D1F8C1EAF21AE29
:0616960020AD1FAC1E2276
:10198F00D2A47F017E00121B1AD2A37F017E001208
:0E199F001B1AC2A47F017E00121B1AC2A322D3
:1019AD00C2A47F017E00121B1AD2A37F017E0012FA
:0E19BD001B1AD2A47F017E00121B1AC2A322A5
:1018D600C2A37F017E00121B1AC2A47F017E0012E2
:1018E6001B1AD2A37F017E00121B1AC2A3D2A42206
:101A7200C2A4D2A47F017E00121B1AD2A37F017ED0
:071A820000121B1AC2A3228F
:10186E00D2A37F017E00121B1AD2A47F017E00122A
:10187E001B1A20A407C2A3C2A47F0022C2A3C2A423
:03188E007F0122B5
:1019CB00C2A47F017E00121B1AC2A47F017E0012EB
:0E19DB001B1AD2A37F017E00121B1AC2A32288
:101891007F017E00121B1AD2A37F017E00121B1A48
:1018A100D2A420A407C2A3C2A47F0022C2A3C2A4BF
:0318B1007F012292
:101A8900D2A47F017E00121B1AD2A37F017E00120D
:051A99001B1AC2A3228C
:10193400D2A47F017E00121B1AD2A37F017E001263
:0F1944001B1A20A405C2A37F0022C2A37F012289
:0215A2008F0AAE
:1015A400E4F50BC3E50B9408748094805021E50A9C
:1015B4003392A47F017E00121B1AD2A37F017E0006
:1015C400121B1AC2A3E50A25E0F50A050B80D47F95
:1015D400017E00121B1A121934EF640170031219F0
:0115E400AD59
:0115E50022E3
:02134A008F1200
:10134C00C2A4C2A37F017E00121B1AE4F513C3E5ED
:10135C00139408748094805021E5123392A47F0179
:10136C007E00121B1AD2A37F017E00121B1AC2A38D
:10137C00E51225E0F512051380D47F017E00121BC7
:10138C001AC2A47F017E00121B1AD2A37F017E0019
:10139C00121B1AC2A37F017E00121B1AD2A47F015A
:0713AC007E00121B1AD2A300
:0113B3002217
:02146C008F12DD
:10146E00E51225E0F512C2A4C2A37F017E00121B75
:10147E001AE4F513C3E5139408748094805021E5A3
:10148E00123392A47F017E00121B1AD2A37F017E1B
:10149E0000121B1AC2A3E51225E0F512051380D423
:1014AE007F017E00121B1A121934EF6401700312B1
:0214BE0019AD66
:0114C0002209
:021416008F1233
:10141800E51225E004F512C2A4C2A37F017E0012E2
:101428001B1AE4F513C3E5139408748094805021C3
:10143800E5123392A47F017E00121B1AD2A37F010A
:101448007E00121B1AC2A3E51225E0F512051380CF
:10145800D47F017E00121B1A121934EF6401700345
:031468001219ADA9
:01146B00225E
:10155D00C2A37F017E00121B1AD2A4E4F513C3E5CA
:10156D00139408748094805022D2A37F017E0012C0
:10157D001B1AE51225E0FFA2A4E4334FF512C2A316
:10158D007F017E00121B1A051380D37F017E00128E
:04159D001B1AAF1254
:0115A1002227
:041769008F578D58B1
:10176D00E4F559E559C39557502312198F7F50123F
:10177D00146CAF581215A27F081215A2E4FF1215B2
:0D178D00A21219AD1219150558055980D684
:01179A00222C
:041822008D08AB077B
:10182600E4F509EEF509EBFD12198F7F5012146CE1
:10183600AF081215A2AF091215A2AF091215A2120E
:0518460019AD021915A7
:101A21008F0812198F7F5012146CAF081215A27F04
:0C1A3100051215A27FF01215A20219ADDB
:021510008F0842
:1015120012198F7F5012146CAF0812134A12198FCE
:101522007F5012141612155D7509008F0A1219CB1D
:1015320012155D8F0B121A891219ADE50AFE7C0095
:10154200E4250BF50AEC3EF509E50A540F640F6039
:0A155200097F647E0012197180B653
:01155C00226C
:021627008F53DF
:1016290012198F7F5012146CAF5312134A12198F6B
:101639007F5012141612155D7554008F551219CB6F
:1016490012155D8F56121A891219ADE555FE7C00E7
:0C165900E42556F555EC3EF554FEAF5567
:011665002262
:021073008F08E4
:10107500E4F510F50FF50EF50D12198F7F501214CA
:101085006CAF0812134A12198F7F501214161215DD
:101095005D7509008F0A1219CB12155D8F11121A91
:1010A500891219ADE50AFE7C00E42511FFEC3EFE30
:1010B500E48F108E0FF50EF50D7F0AFE121B1A1226
:1010C500198F7F5012146CE50804FF12134A7F50E4
:1010D50012141612155D750B008F0C1219CB121513
:1010E5005D8F11121A891219ADE4FF7E01FDFCAB6B
:1010F50010AA0FA90EA80D120417A804A905AA067F
:10110500AB07E4FCFDEB250CF510EA350BF50FED0F
:0E11150039F50EEC38F50DAF10AE0FAD0EFC37
:0111230022A9
:04179B008F4E8D4F91
:10179F00E4F550F551F54FF552E552C3954E5017FC
:1017AF00AF4F121073EF2551F551EE3550F550052F
:0B17BF004F054F055280E2AE50AF51C5
:0117CA0022FC
:040962008F088D0964
:10096600AF0DAE0CAD0BAC0AE412032BE4FBFAF9A7
:1009760078491202048F128E118D108C0F120369A2
:10098600EF75F00A84F50EFB7A00600DAF087E0065
:10099600AD097C00120FB9800100AF12AE11AD1087
:1009A600AC0F120369E47B0AFAF9F81204A2AF034A
:1009B6008F0EAF087E00E5092408FDE433FC7A00BB
:1009C600120FB9AF087E00E5092410FDE433FC7B65
:1009D6000A7A00120FB9E4FFFE7D207C41AB12AA11
:1009E60011A910A80F1200FB120369E47B0AFAF999
:1009F600F81204A2AF038F0EAF087E00E509241893
:100A0600FDE433FC7A00120FB9E4FFFE7DC87C4298
:100A1600AB12AA11A910A80F1200FB120369E47BFE
:100A26000AFAF9F81204A2AF038F0EAF087E00E5AA
:100A3600092420FDE433FC7A00120FB9E4FFFE7DA1
:100A46007A7C44AB12AA11A910A80F1200FB12035C
:100A560069E47B0AFAF9F81204A2AF038F0EAF0815
:100A66007E00E5092428FDE433FC7A00120FB97FE5
:100A7600007E407D1C7C46AB12AA11A910A80F125D
:100A860000FB120369E47B0AFAF9F81204A2AF0329
:100A96008F0EAF087E00E5092430FDE433FC7A00B2
:100AA600120FB9AF087E00E5092438FDE433FC7B5C
:100AB6000B7A00120FB9AF087E00E5092440FDE469
:090AC60033FC7B0C7A00020FB92D
:040EA0008F088D0921
:100EA400AF0DAE0CAD0BAC0AE412032BE4FBFAF964
:100EB40078491202048F128E118D108C0F7FD87E08
:100EC400817D077CC0AB12AA11A910A80F12000AD9
:100ED4007B5D7A8A794978401200FB8F168E158DD6
:100EE400148C13120369EF75F00A84F50EFB7A0073
:100EF400600DAF087E00AD097C00120FB9800100BF
:100F0400AF16AE15AD14AC13120369E47B0AFAF9FB
:100F1400F81204A2AF038F0EAF087E00E50924087F
:100F2400FDE433FC7A00120FB9AF087E00E5092412
:100F340010FDE433FC7B0A7A00120FB9E4FFFE7D56
:100F4400207C41AB16AA15A914A8131200FB1203A6
:100F540069E47B0AFAF9F81204A2AF038F0EAF0812
:100F64007E00E5092418FDE433FC7A00120FB9E48D
:100F7400FFFE7DC87C42AB16AA15A914A813120063
:100F8400FB120369E47B0AFAF9F81204A2AF038F97
:100F94000EAF087E00E5092420FDE433FC7A00123C
:100FA4000FB9AF087E00E5092428FDE433FC7B0D6E
:050FB4007A00020FB9F4
:040C29008F088D099A
:100C2D00E4F515F514F513F512F519F518F517F595
:100C3D0016F51DF51CF51BF51AAF0DAE0CAD0BAC75
:100C4D000A12032BE4FBFAF978491202048F158E70
:100C5D00148D138C127FEA7E957DA27C3EAB11AA7A
:100C6D0010A90FA80E1200FB7BD87A817907784066
:100C7D0012000A8F1D8E1C8D1B8C1AAB15AA14A980
:100C8D0013A812120006121666AB1DAA1CA91BA8EA
:100C9D001A120204E4FBFA79C878421200FB8F198C
:100CAD008E188D178C16120369E47B0AFAF9F81267
:100CBD0004A2AF087E00AD097C007A00120FB9AF17
:100CCD00087E00E5092408FDE433FC7B0A7A001256
:100CDD000FB9E4FFFE7D207C41AB19AA18A917A816
:100CED00161200FB120369E47B0AFAF9F81204A24A
:100CFD00AF087E00E5092410FDE433FC7A00120FE5
:100D0D00B9E4FFFE7DC87C42AB19AA18A917A81635
:100D1D001200FB120369E47B0AFAF9F81204A2AF80
:100D2D00087E00E5092418FDE433FC7A00120FB9A2
:100D3D00E4FFFE7D7A7C44AB19AA18A917A81612F8
:100D4D0000FB120369E47B0AFAF9F81204A2AF085A
:100D5D007E00E5092420FDE433FC7A00120FB9AFC3
:100D6D00087E00E5092428FDE433FC7B0D7A0002A2
:020D7D000FB9AC
:040D7F008F088D0943
:100D8300AF0DAE0CAD0BAC0AE412032BE4FBFAF986
:100D930078491202048F158E148D138C127FD87E1E
:100DA300817D077CC0AB15AA14A913A81212000AEF
:100DB3007B5D7A8A794978401200FBAB07AA06A9C2
:100DC30005A804AF11AE10AD0FAC0E12000612163B
:100DD30066AB11AA10A90FA80E120204E4FBFA795C
:100DE300C878421200FB8F198E188D178C161203C8
:100DF30069E47B0AFAF9F81204A2AF087E00AD0990
:100E03007C007A00120FB9AF087E00E5092408FDC3
:100E1300E433FC7B0A7A00120FB9E4FFFE7D207CE9
:100E230041AB19AA18A917A8161200FB120369E40B
:100E33007B0AFAF9F81204A2AF087E00E509241030
:100E4300FDE433FC7A00120FB9E4FFFE7DC87C4257
:100E5300AB19AA18A917A8161200FB120369E47BA1
:100E63000AFAF9F81204A2AF087E00E5092418FD76
:100E7300E433FC7A00120FB9AF087E00E5092420A1
:100E8300FDE433FC7B0D7A00120FB9E4FBFA79C859
:0D0E93007842AF19AE18AD17AC160202047C
:100003000203D5E86480F8E933E83360110460F053
:10001300ED33EC337009E8FCE9FDEAFEEBFF220463
:1000230060DED3EB9FEA9EE99DE8C2E78CF0C2F75E
:1000330095F0400CE8CCF8E9CDF9EACEFAEBCFFB2A
:100043001203A085D0F05804700320D5B3E80470E0
:10005300075002B2D50203DF92D5EC0460F7E4CC7B
:10006300C0E0C398F8603B94186008400DD0E0FBF3
:100073000203B7E4FBFAC9FC8028E830E406E4C9CC
:10008300FBE4CAFCE830E305E4C9CACBFCE8540747
:100093006010F8C3E913F9EA13FAEB13FBEC13FC52
:1000A300D8F130F52FC3E49CFCEF9BFFEE9AFEEDF5
:1000B30099FDD0E0FBEF4E4D4C701222DB0302039F
:1000C300DCEC2CFCEF33FFEE33FEED33FDED30E7DC
:1000D300EB0203B7EF2BFFEE3AFEED39FDD0E0FB69
:1000E30050130BBB00030203DFED13FDEE13FEEF12
:0800F30013FFEC13FC0203B73C
:1000FB00EC4D6011E8497017ED33EC3304600DE4FF
:10010B00FCFFFEFD22E933E8330470F80203D5123D
:10011B0003A058046009E4CC24815006285009023E
:10012B0003DF2840030203DCC0E0EB4A7044B980D4
:10013B0006D0E0FB0203CBEF4E701CBD8008EBFF3B
:10014B00EAFEE9FD80EBE98DF0A4FEE5F00201E4A7
:10015B00E9CDF9EAFEEBFFEF89F0A4FCE5F0CE89DF
:10016B00F0A42EFFE435F0CD89F0A42DFEE435F09C
:10017B008067EF4E7005BD80D780C3EF8BF0A4ACCA
:10018B00F0EE8BF0A42CFCE435F0F8EF8AF0A42C05
:10019B00E5F038FCE433CB8DF0A42CFCE5F03BF818
:1001AB00EE8AF0A42CFCE5F038F8E433CF89F0A408
:1001BB002CFCE5F038CF3400CE89F0A42FFFE5F00E
:1001CB003EFEE433C98DF0A42EFEE5F039CD8AF066
:1001DB00A42FFFE5F03EFEE43DFD33D0E0FB5007DE
:1001EB000BBB000F0203DFEC2CFCEF33FFEE33FEF7
:0601FB00ED33FD0203B725
:100201000203DFEC5D046005E8590470030203D5C5
:100211001203A0580460F6EC4860F2EC7004FDFE95
:10022100FF22C860DB2481C85009C39860025006D0
:100231000203DC9850CAF582E9294B4A7005AB826A
:100241000203CB75F0007C1A7880C3EF9BEE9AED28
:1002510099400DC3EF9BFFEE9AFEED99FDE842F048
:10026100DC23ACF0D0E0FFD0E0FED0E0FDAB82209B
:10027100E7101BEB60BAEC2CFCEF33FFEE33FEED25
:1002810033FD0203B7E803F830E705C0F075F0006D
:10029100EF2FFFEE33FEED33FD40B830E7C280AA09
:1002A10074F8CC6480CCC86480C8F58204604FC304
:1002B100EB9FF5F0EA9E42F0E99D42F0E89C45F0A3
:1002C100603C501DE5825FFFE582D313CB5BCBF42D
:1002D1002B5582FB50280ABA002409B90020088056
:1002E1001DE5825BFBE582D313CF5FCFF4C3132FF0
:1002F1005582FF50090EBE00050DBD00010CC3EB78
:100301009FF5F0EA9E42F0E99D42F0E89C45F060DD
:0903110007CC4820E701B3EC22FF
:10031A00ED33EC33600A047003BD8004ECB2E7FCF1
:01032A0022B0
:10032B0075F020800E75F010800575F0087D007E4D
:10033B00007F003392D530D503120534EC334010D7
:10034B00EF33FFEE33FEED33FDEC33FCD5F0ED2256
:0E035B00E5F0247EA2D513CC92E7CDCEFF2292
:10036900EDD2E7CD33EC3392D524814006E4FFFE8C
:10037900FDFC22FCE4CFCECDCC24E0501174FF80EB
:10038900EDC3CC13CCCD13CDCE13CECF13CF047088
:07039900F030D5DE0205344F
:1003A000E9D2E7C933E833F892D5EDD2E7CD33ECA3
:0703B00033FC5002B2D5221C
:1003B700EC30E7100FBF000C0EBE00080DBD0004A7
:1003C7000BEB6014A2D5EB13FCED92E7FD2274FF53
:1003D700FCFDFEFF22E480F8A2D574FF13FC7D80AC
:0303E700E480EFC0
:1011C500020ACFE493A3F8E493A34003F68001F267
:1011D50008DFF48029E493A3F85407240CC8C3332B
:1011E500C4540F4420C8834004F456800146F6DFFA
:1011F500E4800B01020408102040809016D1E47EA3
:10120500019360BCA3FF543F30E509541FFEE493EE
:10121500A360010ECF54C025E060A840B8E493A3B5
:10122500FAE493A3F8E493A3C8C582C8CAC583CAE0
:10123500F0A3C8C582C8CAC583CADFE9DEE780BE98
:0117030000E5
:1003EA00BB010CE58229F582E5833AF583E02250C8
:1003FA0006E92582F8E622BBFE06E92582F8E22212
:0D040A00E58229F582E5833AF583E493222B
:10041700E88FF0A4CC8BF0A42CFCE98EF0A42CFC84
:100427008AF0EDA42CFCEA8EF0A4CDA8F08BF0A402
:100437002DCC3825F0FDE98FF0A42CCD35F0FCEB61
:100447008EF0A4FEA9F0EB8FF0A4CFC5F02ECD3926
:0F045700FEE43CFCEAA42DCE35F0FDE43CFC2293
:1004660075F008758200EF2FFFEE33FECD33CDCC4D
:1004760033CCC58233C5829BED9AEC99E5829840D0
:100486000CF582EE9BFEED9AFDEC99FC0FD5F0D6AD
:10049600E4CEFBE4CDFAE4CCF9A88222B800C1B9D7
:1004A6000059BA002DEC8BF084CFCECDFCE5F0CB15
:1004B600F97818EF2FFFEE33FEED33FDEC33FCEB4E
:1004C60033FB10D703994004EB99FB0FD8E5E4F909
:1004D600FA227818EF2FFFEE33FEED33FDEC33FCF6
:1004E600C933C910D7059BE99A4007EC9BFCE99AEA
:1004F600F90FD8E0E4C9FAE4CCFB2275F010EF2F2F
:10050600FFEE33FEED33FDCC33CCC833C810D7072E
:100516009BEC9AE899400AED9BFDEC9AFCE899F869
:0E0526000FD5F0DAE4CDFBE4CCFAE4C8F922FC
:0E053400C3E49FFFE49EFEE49DFDE49CFC22D8
:00000001FF
