:03000000020E2CC1
:0C0E2C00787FE4F6D8FD758153020E7348
:10128B00043300000000043700000000043B0000A2
:10129B000000043F00000000022B000004270000A8
:0E12AB000000022F00000231000C022D000096
:1007F8001214D812102B1214047F011212BA7F029D
:100808001212BA7B047D08E4FF120F227B057D18C3
:10081800E4FF120F227B067D28E4FF120F227B07DC
:100828007D38E4FF120F227B087D48E4FF120F2277
:100838007B097D58E4FF120F227B0A7D68E4FF12D2
:100848000F227B0BE4FD7F03120F227B0C7D107FB0
:1008580003120F227B0F7D207F03120F227B06E4F9
:10086800FD7F06120F227B077D107F06120F227B69
:10087800087D207F06120F227B0F7D307F06120F26
:10088800227FFE1211508E318F327FFF1211508E4F
:100898002D8F2E75310075320C7D087F007E1C125D
:1008A80013117D097F007E3C1213117D0A7F007EA3
:1008B8005C1213117D0B7F007E7C1213117F0C12CA
:1008C80015107F0C12107AE4FF120CE68F368E3565
:1008D8008D348C337F02120CE68F3A8E398D388C2A
:1008E800377F04120CE68F3E8E3D8D3C8C3B7F0695
:1008F800120CE68F428E418D408C3F7F0C12107A8D
:10090800E4FF120CE68F368E358D348C337F02125D
:100918000CE68F3A8E398D388C377F04120CE68FAF
:100928003E8E3D8D3C8C3B7F06120CE68F428E41FD
:100938008D408C3FE536253AFFE5353539FEE534FF
:100948003538FDE5333537FCEF253EFFEE353DFE06
:10095800ED353CFDEC353BFCEF2542FFEE3541FE25
:10096800ED3540FDEC353FFCE47B04FAF9F8120460
:10097800188E2B8F2C853A0D85390C85380B8537C9
:100988000A7D307F031209A6853A0D85390C853812
:0E0998000B85370A7D387F06120B1302090308
:1004B80000E010080810E000000F102020100F00C6
:1004C800001010F8000000000020203F202000004D
:1004D80000700808088870000030282422213000A5
:1004E80000300888884830000018202020110E00AD
:1004F8000000C02010F8000000070424243F240056
:1005080000F80888880808000019212020110E002A
:1005180000E0108888180000000F112020110E003C
:1005280000380808C83808000000003F0000000034
:100538000070880808887000001C222121221C00F5
:1005480000E010080810E0000000312222110F001E
:10055800000000C0C00000000000003030000000B3
:10056800000000000000000000010101010101017C
:10057800000000F0000000000101011F010101005E
:100588000000000000000000003030000000000003
:10059800808000808000000080FF912020110E00E4
:1005A800008080E0909020000020203F2020000064
:1005B800F008F0806018000000310C031E211E00B6
:1005C8000000000000000000808080808080808023
:1005D8000000000000000000000000000000000013
:1005E80000008040201008000001020408102000CC
:1005F800000202C2020202FE82828282820200009D
:100608004040407F4040407F4040404040404000A4
:10061800080888C8380C0B0808E808080808080003
:10062800020100FF40414141417F414141414000B9
:1006380080828282FE8282828282FE828282800020
:10064800008040300F0000000000FF0000000000A4
:100658001010D0FF901000FE020202FE0000000001
:10066800040300FF0083601F0000003F4040780043
:100678000000FE0202F2929A969292F202020200A0
:1006880080601F40201744847C0404172040000029
:100698001060028C00F0101010FF101010F0000015
:1006A80004047E0100FF4242427F424242FF0000B2
:1006B80040402020908894E3848890202040400087
:1006C800000000FC44444444464544FC000000004B
:1006D80000202020A06000FF60804020180000005B
:1006E800201008060140807F000102040810100055
:1006F8000014A4442434AD6624940444A4140000D3
:1007080008090808090909FD09090B08080908006A
:100718001010D0FF905020504C434C5020404000C7
:10072800040300FF00414458414E605847404000D0
:100738001060028C00FE02F202FE00F800FF0000CA
:1007480004047E018047300F10270047807F000097
:100758000000F888888888FF88888888F800000062
:1007680000001F080808087F888888889F80F00094
:10077800100C4424148445264484142444140C0086
:10078800040402FE45444444444445FE0204040073
:10079800100C4424148445264484142444140C0066
:1007A800040402FE45444444444445FE0204040053
:1007B800008060F80704E4A4A4BFA4A4E404000033
:1007C800010000FF40407F4A4A4A4A4A7F404000B1
:1007D8000000000000000000000000000000000011
:1007E8000000363600000000000000000000000095
:0C15D000000000000000000000000022ED
:0715E700E4F526C2A2D2A127
:0115EE0022DA
:10144200AB22AA23A924852582758300120360FF9B
:0E1452001215E7D2A2C2A18F90D2A0C2A02292
:10157200D2B0D2B11215E7C2A1C2A28F90D2A0C23C
:02158200A022A5
:0E15C2001215E7C2A1C2A28F90D2A0C2A02231
:071584007F0112133AAF20B2
:09158B005307074307B80215C21B
:07159400E52124C02525FF1D
:09159B0053073F4307400215C24B
:0615EF004307C00215C213
:0615F50043073E0215C28F
:10133A00EF14600B14601124027017C2B08002D23D
:10134A00B01215D0C2B18007C2B01215D0D2B112F4
:03135A0015D02289
:1012BA0012133AE4FEEEC3940874809480501CAF73
:1012CA000612158BE4FDEDC3944074809480500897
:0B12DA00E4FF1214520D80EE0E80DACB
:0112E50022E6
:0A0D97008F208D218B228A238924EE
:100DA100C3E521944074809480503A121584AF2198
:100DB10012159BE4F525AF25C3EF94087480948048
:100DC1005068E5212FFFE433FEC3EF9440EE6480C9
:100DD1009480500280087F02121586121594121415
:100DE10042052580D17F0212133A74C02521F521D5
:100DF100AF2012158BAF2112159BE4F525AF25C34A
:100E0100EF9408748094805021E5212FFFE433FE94
:100E1100C3EF9440EE6480948050028006121584E2
:0A0E2100121594121442052580D327
:010E2B0022A4
:0411F7008F1B8D1CA1
:1011FB00EB75F010A424B8F9740435F0FA7BFF8B6F
:10120B001DF51E891FAF1B120D97E51B04FFAB1DB0
:0E121B00E51F2408F9E4351EFAAD1C020D97FC
:040F22008F098D0A9C
:100F2600EB75F020A424F8F9740535F0FA7BFF8BF5
:100F36000BF50C890DAF09120D97E50A2408FDABD8
:100F46000BE50D2408F9E4350CFAAF09120D97E507
:100F56000904FFAB0BE50D2410F9E4350CFAAD0AD4
:100F6600120D97E50904FFE50A2408FDAB0BE50D14
:0A0F76002418F9E4350CFA020D9777
:1014D8007FD0AE071FEE70FA7F011215F57F01125B
:0C14E80012BA7F021212BAE4FF0215EFE4
:10102B00E4F508FB7D287F02120F227B017D387FC0
:10103B0002120F227B027D487F02120F227B037D5F
:10104B00587F02120F22E4F508C3E508940A748056
:10105B009480501AE50875F008A42420FD7B137FBB
:0E106B00041211F7121404121404050880DB9D
:011079002254
:100C2C008E178F188C198D1AEA6003020CE5EBB441
:100C3C000E004003020CE5900C4AF8282873020CB5
:100C4C00BC020C74020C7C020C84020C8C020C9402
:100C5C00020C9C020CA4020CAC020CB4020CC402DC
:100C6C000CCC020CD4020CDCAF18AD1A7B018066E4
:100C7C00AF18AD1A7B02805EAF18AD1A7B0380569D
:100C8C00AF18AD1A7B04804EAF18AD1A7B058046A9
:100C9C00AF18AD1A7B06803EAF18AD1A7B078036B5
:100CAC00AF18AD1A7B08802EAF18AD1A7B098026C1
:100CBC00AF18AD1AE4FB801EAF18AD1A7B0D801671
:100CCC00AF18AD1A7B0E800EAF18AD1A7B0F8006D5
:0A0CDC00AF18AD1A7B101211F722B9
:0F15A400D2A41215FBD2A31215FBC2A40215FB91
:0F15B300C2A41215FBD2A31215FBD2A40215FB82
:1014F400D2A31215FB30A40FC3E55394FA7480945D
:0C150400805004055380EEC2A30215FBCA
:1011C4008F4CE4F54BC3E54B94087480948050191C
:1011D400E54C25E0F54CC2A31215FB92A41215FBB5
:1011E400D2A31215FB054B80DCC2A31215FBD2A4BB
:0311F4000215FBE6
:10118F00C2A31215FBD2A41215FBE4F54DC3E54D16
:10119F00940874809480501AD2A31215FBE54E2543
:1011AF00E0FFA2A4E4334FF54EC2A31215FB054D89
:0411BF0080DBAF4ED4
:0111C3002209
:1013A3008F4F8D501215A47FA01211C41214F4AFE5
:1013B3004F1211C41214F4AF501211C41214F402D8
:0213C30015B360
:0212E6008F5126
:1012E8001215A47FA01211C41214F4AF511211C424
:1012F8001214F41215A47FA11211C41214F41211BD
:081308008F8F521215B3AF5292
:0113100022BA
:10146000D3EF9400EE940040147D707C00ED1D706D
:0D147000011CED4C70F7EF1F70E61E80E3CD
:01147D00224C
:0B15DC00EF1FAC0670011E4C70F622E1
:1013E500E4FFEFC394FF748094805012E4FEEEC3D3
:0E13F50094C87480948050030E80F30F80E43F
:0114030022C6
:101404007F13EFD394007480948040127E82EED3D5
:0E14140094007480948040031E80F31F80E4D7
:0114220022A7
:10152C00E4FEEEC39F5012E4FDEDC3946E74809400
:09153C008050030D80F30E80E9DC
:011545002283
:0115FB0022CD
:10147E00D2A47F017E001215DCD2A37F017E001262
:0E148E0015DCC2A47F017E001215DCC2A32271
:10149C00C2A47F017E001215DCD2A37F017E001254
:0E14AC0015DCD2A47F017E001215DCC2A32243
:1013C500C2A37F017E001215DCC2A47F017E00123C
:1013D50015DCD2A37F017E001215DCC2A3D2A422A4
:10154600C2A4D2A47F017E001215DCD2A37F017E45
:07155600001215DCC2A32204
:10135D00D2A37F017E001215DCD2A47F017E001284
:10136D0015DC20A407C2A3C2A47F0022C2A3C2A47D
:03137D007F0122CB
:1014BA00C2A47F017E001215DCC2A47F017E001245
:0E14CA0015DCD2A37F017E001215DCC2A32226
:101380007F017E001215DCD2A37F017E001215DCE6
:10139000D2A420A407C2A3C2A47F0022C2A3C2A4D5
:0313A0007F0122A8
:10155D00D2A47F017E001215DCD2A37F017E001282
:05156D0015DCC2A32201
:10142300D2A47F017E001215DCD2A37F017E0012BD
:0F14330015DC20A405C2A37F0022C2A37F0122E3
:02110C008F0A48
:10110E00E4F50BC3E50B9408748094805021E50A36
:10111E003392A47F017E001215DCD2A37F017E00E4
:10112E001215DCC2A3E50A25E0F50A050B80D47F73
:10113E00017E001215DC121423EF640170031214E9
:01114E009C04
:01114F00227D
:020EB8008F1297
:100EBA00C2A4C2A37F017E001215DCE4F513C3E5C8
:100ECA00139408748094805021E5123392A47F0110
:100EDA007E001215DCD2A37F017E001215DCC2A3AC
:100EEA00E51225E0F512051380D47F017E00121564
:100EFA00DCC2A47F017E001215DCD2A37F017E0032
:100F0A001215DCC2A37F017E001215DCD2A47F0178
:070F1A007E001215DCD2A3DA
:010F210022AD
:020FD6008F1278
:100FD800E51225E0F512C2A4C2A37F017E00121516
:100FE800DCE4F513C3E5139408748094805021E57C
:100FF800123392A47F017E001215DCD2A37F017EFA
:10100800001215DCC2A3E51225E0F512051380D401
:101018007F017E001215DC121423EF6401700312A5
:02102800149C16
:01102A0022A3
:020F80008F12CE
:100F8200E51225E004F512C2A4C2A37F017E00127D
:100F920015DCE4F513C3E5139408748094805021A2
:100FA200E5123392A47F017E001215DCD2A37F01E9
:100FB2007E001215DCC2A3E51225E0F512051380AE
:100FC200D47F017E001215DC121423EF640170033A
:030FD20012149C5A
:010FD50022F9
:1010C700C2A37F017E001215DCD2A4E4F513C3E5A9
:1010D700139408748094805022D2A37F017E00125B
:1010E70015DCE51225E0FFA2A4E4334FF512C2A3F5
:1010F7007F017E001215DC051380D37F017E00126D
:0411070015DCAF1232
:01110B0022C1
:041229008F488D4914
:10122D00E4F54AE54AC39548502312147E7F5012C7
:10123D000FD6AF4912110C7F0812110CE4FF1211D9
:0D124D000C12149C1214040549054A80D6A9
:01125A002271
:041311008D08AB0791
:10131500E4F509EEF509EBFD12147E7F50120FD6A8
:10132500AF0812110CAF0912110CAF0912110C12F2
:05133500149C021404E9
:101510008F0812147E7F50120FD6AF0812110C7F65
:0C1520000512110C7FF012110C02149C3B
:02107A008F08DD
:10107C0012147E7F50120FD6AF08120EB812147EC7
:10108C007F50120F801210C77509008F0A1214BA04
:10109C001210C78F0B12155D12149CE50AFE7C0012
:1010AC00E4250BF50AEC3EF509E50A540F640F60D4
:0A10BC00097F647E0012146080B604
:0110C6002207
:021150008F0806
:1011520012147E7F50120FD6AF08120EB812147EF0
:101162007F50120F801210C77509008F0A1214BA2D
:101172001210C78F0B12155D12149CE50AFE7C003B
:0C118200E4250BF50AEC3EF509FEAF0A6F
:01118E00223E
:020CE6008F0875
:100CE800E4F510F50FF50EF50D12147E7F50120F76
:100CF800D6AF08120EB812147E7F50120F80121051
:100D0800C77509008F0A1214BA1210C78F1112156D
:100D18005D12149CE50AFE7C00E42511FFEC3EFE02
:100D2800E48F108E0FF50EF50D7F0AFE1215DC12FA
:100D3800147E7F50120FD6E50804FF120EB87F50BC
:100D4800120F801210C7750B008F0C1214BA1210F4
:100D5800C78F1112155D12149CE4FF7E01FDFCABD8
:100D680010AA0FA90EA80D12038DA804A905AA069A
:100D7800AB07E4FCFDEB250CF510EA350BF50FEDA0
:0E0D880039F50EEC38F50DAF10AE0FAD0EFCC8
:010D9600223A
:04125B008F438D44EC
:10125F00E4F545F546F544F547E547C39543501783
:10126F00AF44120CE6EF2546F546EE3545F545053C
:0B127F00440544054780E2AE45AF4641
:01128A002241
:0409A6008F088D0920
:1009AA00AF0DAE0CAD0BAC0AE41202A1E4FBFAF9EE
:1009BA0078491202048F128E118D108C0F1202DFE9
:1009CA00EF75F00A84F50EFB7A00600DAF087E0021
:1009DA00AD097C00120C2C800100AF12AE11AD10D3
:1009EA00AC0F1202DFE47B0AFAF9F8120418AF031B
:1009FA008F0EAF087E00E5092408FDE433FC7A0077
:100A0A00120C2CAF087E00E5092410FDE433FC7BB0
:100A1A000A7A00120C2CE4FFFE7D207C41AB12AA5C
:100A2A0011A910A80F1200FB1202DFE47B0AFAF9DF
:100A3A00F8120418AF038F0EAF087E00E5092418D8
:100A4A00FDE433FC7A00120C2CE4FFFE7DC87C42E4
:100A5A00AB12AA11A910A80F1200FB1202DFE47B45
:100A6A000AFAF9F8120418AF038F0EAF087E00E5F0
:100A7A00092420FDE433FC7A00120C2CE4FFFE7DED
:100A8A007A7C44AB12AA11A910A80F1200FB120219
:100A9A00DFE47B0AFAF9F8120418AF038F0EAF08E5
:100AAA007E00E5092428FDE433FC7A00120C2C7F31
:100ABA00007E407D1C7C46AB12AA11A910A80F1219
:100ACA0000FB1202DFE47B0AFAF9F8120418AF03FA
:100ADA008F0EAF087E00E5092430FDE433FC7A006E
:100AEA00120C2CAF087E00E5092438FDE433FC7BA8
:100AFA000B7A00120C2CAF087E00E5092440FDE4B5
:090B0A0033FC7B0C7A00020C2C78
:040B13008F088D09B1
:100B1700AF0DAE0CAD0BAC0AE41202A1E4FBFAF97F
:100B270078491202048F128E118D108C0F7FD87E98
:100B3700817D077CC0AB12AA11A910A80F12000A69
:100B47007B5D7A8A794978401200FB8F168E158D66
:100B5700148C131202DFEF75F00A84F50EFB7A008E
:100B6700600DAF087E00AD097C00120C2C800100DF
:100B7700AF16AE15AD14AC131202DFE47B0AFAF917
:100B8700F8120418AF038F0EAF087E00E50924089A
:100B9700FDE433FC7A00120C2CAF087E00E5092433
:100BA70010FDE433FC7B0A7A00120C2CE4FFFE7D77
:100BB700207C41AB16AA15A914A8131200FB120238
:100BC700DFE47B0AFAF9F8120418AF038F0EAF08B7
:100BD7007E00E5092418FDE433FC7A00120C2CE4AE
:100BE700FFFE7DC87C42AB16AA15A914A8131200F4
:100BF700FB1202DFE47B0AFAF9F8120418AF038F3D
:100C07000EAF087E00E5092420FDE433FC7A0012CC
:100C17000C2CAF087E00E5092428FDE433FC7B0D8E
:050C27007A00020C2C14
:1000030002034BE86480F8E933E83360110460F0DD
:10001300ED33EC337009E8FCE9FDEAFEEBFF220463
:1000230060DED3EB9FEA9EE99DE8C2E78CF0C2F75E
:1000330095F0400CE8CCF8E9CDF9EACEFAEBCFFB2A
:1000430012031685D0F05804700320D5B3E804706A
:10005300075002B2D502035592D5EC0460F7E4CC05
:10006300C0E0C398F8603B94186008400DD0E0FBF3
:1000730002032DE4FBFAC9FC8028E830E406E4C956
:10008300FBE4CAFCE830E305E4C9CACBFCE8540747
:100093006010F8C3E913F9EA13FAEB13FBEC13FC52
:1000A300D8F130F52FC3E49CFCEF9BFFEE9AFEEDF5
:1000B30099FDD0E0FBEF4E4D4C701222DB0302039F
:1000C30052EC2CFCEF33FFEE33FEED33FDED30E766
:1000D300EB02032DEF2BFFEE3AFEED39FDD0E0FBF3
:1000E30050130BBB0003020355ED13FDEE13FEEF9C
:0800F30013FFEC13FC02032DC6
:1000FB00EC4D6011E8497017ED33EC3304600DE4FF
:10010B00FCFFFEFD22E933E8330470F802034B12C7
:10011B00031658046009E4CC2481500628500902C8
:10012B000355284003020352C0E0EB4A7044B980E8
:10013B0006D0E0FB020341EF4E701CBD8008EBFFC5
:10014B00EAFEE9FD80EBE98DF0A4FEE5F00201E4A7
:10015B00E9CDF9EAFEEBFFEF89F0A4FCE5F0CE89DF
:10016B00F0A42EFFE435F0CD89F0A42DFEE435F09C
:10017B008067EF4E7005BD80D780C3EF8BF0A4ACCA
:10018B00F0EE8BF0A42CFCE435F0F8EF8AF0A42C05
:10019B00E5F038FCE433CB8DF0A42CFCE5F03BF818
:1001AB00EE8AF0A42CFCE5F038F8E433CF89F0A408
:1001BB002CFCE5F038CF3400CE89F0A42FFFE5F00E
:1001CB003EFEE433C98DF0A42EFEE5F039CD8AF066
:1001DB00A42FFFE5F03EFEE43DFD33D0E0FB5007DE
:1001EB000BBB000F020355EC2CFCEF33FFEE33FE81
:0601FB00ED33FD02032DAF
:10020100020355EC5D046005E85904700302034BD9
:10021100120316580460F6EC4860F2EC7004FDFE1F
:10022100FF22C860DB2481C85009C39860025006D0
:100231000203529850CAF582E9294B4A7005AB82F4
:1002410002034175F0007C1A7880C3EF9BEE9AEDB2
:1002510099400DC3EF9BFFEE9AFEED99FDE842F048
:10026100DC23ACF0D0E0FFD0E0FED0E0FDAB82209B
:10027100E7101BEB60BAEC2CFCEF33FFEE33FEED25
:1002810033FD02032DE803F830E705C0F075F000F7
:10029100EF2FFFEE33FEED33FD40B830E7C280AA09
:1002A10075F020800E75F010800575F0087D007ED8
:1002B100007F003392D530D5031204AAEC334010ED
:1002C100EF33FFEE33FEED33FDEC33FCD5F0ED22E1
:0E02D100E5F0247EA2D513CC92E7CDCEFF221D
:1002DF00EDD2E7CD33EC3392D524814006E4FFFE17
:1002EF00FDFC22FCE4CFCECDCC24E0501174FF8076
:1002FF00EDC3CC13CCCD13CDCE13CECF13CF047013
:07030F00F030D5DE0204AA64
:10031600E9D2E7C933E833F892D5EDD2E7CD33EC2D
:0703260033FC5002B2D522A6
:10032D00EC30E7100FBF000C0EBE00080DBD000431
:10033D000BEB6014A2D5EB13FCED92E7FD2274FFDD
:10034D00FCFDFEFF22E480F8A2D574FF13FC7D8036
:03035D00E480EF4A
:100E38000207F8E493A3F8E493A34003F68001F2D1
:100E480008DFF48029E493A3F85407240CC8C333BB
:100E5800C4540F4420C8834004F456800146F6DF8A
:100E6800E4800B010204081020408090128BE47E7D
:100E7800019360BCA3FF543F30E509541FFEE4937F
:100E8800A360010ECF54C025E060A840B8E493A346
:100E9800FAE493A3F8E493A3C8C582C8CAC583CA71
:100EA800F0A3C8C582C8CAC583CADFE9DEE780BE29
:0112B9000034
:10036000BB010CE58229F582E5833AF583E0225052
:1003700006E92582F8E622BBFE06E92582F8E2229C
:0D038000E58229F582E5833AF583E49322B6
:10038D00E88FF0A4CC8BF0A42CFCE98EF0A42CFC0F
:10039D008AF0EDA42CFCEA8EF0A4CDA8F08BF0A48D
:1003AD002DCC3825F0FDE98FF0A42CCD35F0FCEBEC
:1003BD008EF0A4FEA9F0EB8FF0A4CFC5F02ECD39B1
:0F03CD00FEE43CFCEAA42DCE35F0FDE43CFC221E
:1003DC0075F008758200EF2FFFEE33FECD33CDCCD8
:1003EC0033CCC58233C5829BED9AEC99E58298405B
:1003FC000CF582EE9BFEED9AFDEC99FC0FD5F0D638
:10040C00E4CEFBE4CDFAE4CCF9A88222B800C1B961
:10041C000059BA002DEC8BF084CFCECDFCE5F0CB9F
:10042C00F97818EF2FFFEE33FEED33FDEC33FCEBD8
:10043C0033FB10D703994004EB99FB0FD8E5E4F993
:10044C00FA227818EF2FFFEE33FEED33FDEC33FC80
:10045C00C933C910D7059BE99A4007EC9BFCE99A74
:10046C00F90FD8E0E4C9FAE4CCFB2275F010EF2FB9
:10047C00FFEE33FEED33FDCC33CCC833C810D707B9
:10048C009BEC9AE899400AED9BFDEC9AFCE899F8F4
:0E049C000FD5F0DAE4CDFBE4CCFAE4C8F92287
:0E04AA00C3E49FFFE49EFEE49DFDE49CFC2263
:00000001FF
