:10015D0057726974653A0052656164203A00576FB1
:04016D00726C64004C
:100003001200C57F8012018BE4F50890015D120197
:10001300710508E508C3940640F17FC012018BE423
:10002300F5089001641201710508E508C3940640C0
:10003300F17F051200B4E4F508E50890016B9360C5
:1000430036E5082487FF12018BE50890016B93FFC7
:10005300120175E50804FFE50890016B93FD120199
:1000630045E50824C7FF12018BE50804FF120108C8
:09007300120175050880C280FE2F
:1000C5007F3812018B7F0C12018B7F0612018B7F0B
:1000D5000112018B7F0F12018BD2911201AED290CA
:0300E5000201AE67
:1000A1007F011200B4C2B51200B4D2B61200B48CF2
:0300B100A07F0528
:1000B400E4FEEEC39F5009E4FD0DBD6EFC0E80F21C
:0100C4002219
:0A018B00AC07C2B41200A1C2B622F4
:04017100E50893FF0B
:0A017500AC07D2B41200A1C2B622FA
:0501A9001201AED2902E
:0101AE00222E
:0A019500D2911201A9C2910201AE3D
:0A019F00C2911201A9D2910201AE33
:0800E8001201957FA01201270F
:1000F000D2901201AE30910BE509C394FA50040579
:080100000980F2C2900201AE79
:10012700E4FEEF25E0FFC2901201AE92911201A901
:0E0137000EBE08EEC2901201AED2910201AED1
:10007C00C2901201AED2911201AEE4FED2901201E6
:10008C00AEEF25E0FDA291E4334DFFC2901201AE1C
:04009C000EBE08E8A4
:0100A000223D
:10014500AC071200E8AF041201271200F0AF051248
:0801550001271200F002019FD6
:02010800AD0741
:10010A001200E8AF051201271200F01201957FA133
:0C011A001201271200F012007C12019F5D
:0101260022B6
:0300000002017F7B
:0C017F00787FE4F6D8FD758109020003CA
:00000001FF
